{
  "_format": "hh-sol-artifact-1",
  "contractName": "Todo",
  "sourceName": "contracts/Todo.sol",
  "abi": [
    {
      "inputs": [],
      "stateMutability": "nonpayable",
      "type": "constructor"
    },
    {
      "anonymous": false,
      "inputs": [
        {
          "indexed": true,
          "internalType": "address",
          "name": "from",
          "type": "address"
        },
        {
          "indexed": false,
          "internalType": "uint256",
          "name": "timestamp",
          "type": "uint256"
        },
        {
          "indexed": false,
          "internalType": "string",
          "name": "todo",
          "type": "string"
        }
      ],
      "name": "NewTodo",
      "type": "event"
    },
    {
      "inputs": [
        {
          "internalType": "string",
          "name": "_todo",
          "type": "string"
        }
      ],
      "name": "addTodo",
      "outputs": [],
      "stateMutability": "nonpayable",
      "type": "function"
    },
    {
      "inputs": [],
      "name": "getTodos",
      "outputs": [
        {
          "components": [
            {
              "internalType": "string",
              "name": "todo",
              "type": "string"
            },
            {
              "internalType": "address",
              "name": "owner",
              "type": "address"
            },
            {
              "internalType": "bool",
              "name": "completed",
              "type": "bool"
            },
            {
              "internalType": "uint256",
              "name": "id",
              "type": "uint256"
            }
          ],
          "internalType": "struct Todo.todoObject[]",
          "name": "",
          "type": "tuple[]"
        }
      ],
      "stateMutability": "view",
      "type": "function"
    },
    {
      "inputs": [
        {
          "internalType": "uint256",
          "name": "index",
          "type": "uint256"
        }
      ],
      "name": "removeTodo",
      "outputs": [],
      "stateMutability": "nonpayable",
      "type": "function"
    },
    {
      "inputs": [
        {
          "internalType": "uint256",
          "name": "",
          "type": "uint256"
        }
      ],
      "name": "todoList",
      "outputs": [
        {
          "internalType": "string",
          "name": "todo",
          "type": "string"
        },
        {
          "internalType": "address",
          "name": "owner",
          "type": "address"
        },
        {
          "internalType": "bool",
          "name": "completed",
          "type": "bool"
        },
        {
          "internalType": "uint256",
          "name": "id",
          "type": "uint256"
        }
      ],
      "stateMutability": "view",
      "type": "function"
    },
    {
      "inputs": [
        {
          "internalType": "uint256",
          "name": "_id",
          "type": "uint256"
        },
        {
          "internalType": "bool",
          "name": "_completed",
          "type": "bool"
        }
      ],
      "name": "updateTodoStatus",
      "outputs": [],
      "stateMutability": "nonpayable",
      "type": "function"
    }
  ],
  "bytecode": "0x60806040523480156200001157600080fd5b506200005d6040518060400160405280601e81526020017f57656c636f6d6520746f2074686520736d61727420636f6e74726163742e00008152506200006360201b620007ed1760201c565b620001f7565b62000103816040516024016200007a919062000170565b6040516020818303038152906040527f41304fac000000000000000000000000000000000000000000000000000000007bffffffffffffffffffffffffffffffffffffffffffffffffffffffff19166020820180517bffffffffffffffffffffffffffffffffffffffffffffffffffffffff83818316178352505050506200010660201b60201c565b50565b60008151905060006a636f6e736f6c652e6c6f679050602083016000808483855afa5050505050565b60006200013c8262000194565b6200014881856200019f565b93506200015a818560208601620001b0565b6200016581620001e6565b840191505092915050565b600060208201905081810360008301526200018c81846200012f565b905092915050565b600081519050919050565b600082825260208201905092915050565b60005b83811015620001d0578082015181840152602081019050620001b3565b83811115620001e0576000848401525b50505050565b6000601f19601f8301169050919050565b61121080620002076000396000f3fe608060405234801561001057600080fd5b50600436106100575760003560e01c80633be3d7031461005c57806358c2d4691461007857806395ffebf5146100ab578063c33926cb146100c7578063e1747817146100e5575b600080fd5b61007660048036038101906100719190610b02565b610101565b005b610092600480360381019061008d9190610b02565b61034b565b6040516100a29493929190610db1565b60405180910390f35b6100c560048036038101906100c09190610ab9565b610440565b005b6100cf61058d565b6040516100dc9190610d6d565b60405180910390f35b6100ff60048036038101906100fa9190610b2f565b6106f9565b005b3373ffffffffffffffffffffffffffffffffffffffff166000828154811061012c5761012b6110d7565b5b906000526020600020906003020160010160009054906101000a900473ffffffffffffffffffffffffffffffffffffffff1673ffffffffffffffffffffffffffffffffffffffff16146101b4576040517f08c379a00000000000000000000000000000000000000000000000000000000081526004016101ab90610dfd565b60405180910390fd5b600060016000805490506101c89190610f29565b815481106101d9576101d86110d7565b5b9060005260206000209060030201600082815481106101fb576101fa6110d7565b5b9060005260206000209060030201600082018160000190805461021d90610fe7565b6102289291906108af565b506001820160009054906101000a900473ffffffffffffffffffffffffffffffffffffffff168160010160006101000a81548173ffffffffffffffffffffffffffffffffffffffff021916908373ffffffffffffffffffffffffffffffffffffffff1602179055506001820160149054906101000a900460ff168160010160146101000a81548160ff0219169083151502179055506002820154816002015590505060008054806102dc576102db6110a8565b5b600190038181906000526020600020906003020160008082016000610301919061093c565b6001820160006101000a81549073ffffffffffffffffffffffffffffffffffffffff02191690556001820160146101000a81549060ff021916905560028201600090555050905550565b6000818154811061035b57600080fd5b906000526020600020906003020160009150905080600001805461037e90610fe7565b80601f01602080910402602001604051908101604052809291908181526020018280546103aa90610fe7565b80156103f75780601f106103cc576101008083540402835291602001916103f7565b820191906000526020600020905b8154815290600101906020018083116103da57829003601f168201915b5050505050908060010160009054906101000a900473ffffffffffffffffffffffffffffffffffffffff16908060010160149054906101000a900460ff16908060020154905084565b600060405180608001604052808381526020013373ffffffffffffffffffffffffffffffffffffffff168152602001600015158152602001600080549050815250908060018154018082558091505060019003906000526020600020906003020160009091909190915060008201518160000190805190602001906104c692919061097c565b5060208201518160010160006101000a81548173ffffffffffffffffffffffffffffffffffffffff021916908373ffffffffffffffffffffffffffffffffffffffff16021790555060408201518160010160146101000a81548160ff0219169083151502179055506060820151816002015550503373ffffffffffffffffffffffffffffffffffffffff167f9807046998e401797e01776e2f1e343cd6ce275a52ba784c133529ec1ca9a0ac4283604051610582929190610e3d565b60405180910390a250565b60606000805480602002602001604051908101604052809291908181526020016000905b828210156106f057838290600052602060002090600302016040518060800160405290816000820180546105e490610fe7565b80601f016020809104026020016040519081016040528092919081815260200182805461061090610fe7565b801561065d5780601f106106325761010080835404028352916020019161065d565b820191906000526020600020905b81548152906001019060200180831161064057829003601f168201915b505050505081526020016001820160009054906101000a900473ffffffffffffffffffffffffffffffffffffffff1673ffffffffffffffffffffffffffffffffffffffff1673ffffffffffffffffffffffffffffffffffffffff1681526020016001820160149054906101000a900460ff16151515158152602001600282015481525050815260200190600101906105b1565b50505050905090565b3373ffffffffffffffffffffffffffffffffffffffff1660008381548110610724576107236110d7565b5b906000526020600020906003020160010160009054906101000a900473ffffffffffffffffffffffffffffffffffffffff1673ffffffffffffffffffffffffffffffffffffffff16146107ac576040517f08c379a00000000000000000000000000000000000000000000000000000000081526004016107a390610e1d565b60405180910390fd5b80600083815481106107c1576107c06110d7565b5b906000526020600020906003020160010160146101000a81548160ff0219169083151502179055505050565b610883816040516024016108019190610d8f565b6040516020818303038152906040527f41304fac000000000000000000000000000000000000000000000000000000007bffffffffffffffffffffffffffffffffffffffffffffffffffffffff19166020820180517bffffffffffffffffffffffffffffffffffffffffffffffffffffffff8381831617835250505050610886565b50565b60008151905060006a636f6e736f6c652e6c6f679050602083016000808483855afa5050505050565b8280546108bb90610fe7565b90600052602060002090601f0160209004810192826108dd576000855561092b565b82601f106108ee578054855561092b565b8280016001018555821561092b57600052602060002091601f016020900482015b8281111561092a57825482559160010191906001019061090f565b5b5090506109389190610a02565b5090565b50805461094890610fe7565b6000825580601f1061095a5750610979565b601f0160209004906000526020600020908101906109789190610a02565b5b50565b82805461098890610fe7565b90600052602060002090601f0160209004810192826109aa57600085556109f1565b82601f106109c357805160ff19168380011785556109f1565b828001600101855582156109f1579182015b828111156109f05782518255916020019190600101906109d5565b5b5090506109fe9190610a02565b5090565b5b80821115610a1b576000816000905550600101610a03565b5090565b6000610a32610a2d84610e92565b610e6d565b905082815260208101848484011115610a4e57610a4d61113a565b5b610a59848285610fa5565b509392505050565b600081359050610a70816111ac565b92915050565b600082601f830112610a8b57610a8a611135565b5b8135610a9b848260208601610a1f565b91505092915050565b600081359050610ab3816111c3565b92915050565b600060208284031215610acf57610ace611144565b5b600082013567ffffffffffffffff811115610aed57610aec61113f565b5b610af984828501610a76565b91505092915050565b600060208284031215610b1857610b17611144565b5b6000610b2684828501610aa4565b91505092915050565b60008060408385031215610b4657610b45611144565b5b6000610b5485828601610aa4565b9250506020610b6585828601610a61565b9150509250929050565b6000610b7b8383610cec565b905092915050565b610b8c81610f5d565b82525050565b610b9b81610f5d565b82525050565b6000610bac82610ed3565b610bb68185610ef6565b935083602082028501610bc885610ec3565b8060005b85811015610c045784840389528151610be58582610b6f565b9450610bf083610ee9565b925060208a01995050600181019050610bcc565b50829750879550505050505092915050565b610c1f81610f6f565b82525050565b610c2e81610f6f565b82525050565b6000610c3f82610ede565b610c498185610f07565b9350610c59818560208601610fb4565b610c6281611149565b840191505092915050565b6000610c7882610ede565b610c828185610f18565b9350610c92818560208601610fb4565b610c9b81611149565b840191505092915050565b6000610cb3601e83610f18565b9150610cbe8261115a565b602082019050919050565b6000610cd6601d83610f18565b9150610ce182611183565b602082019050919050565b60006080830160008301518482036000860152610d098282610c34565b9150506020830151610d1e6020860182610b83565b506040830151610d316040860182610c16565b506060830151610d446060860182610d4f565b508091505092915050565b610d5881610f9b565b82525050565b610d6781610f9b565b82525050565b60006020820190508181036000830152610d878184610ba1565b905092915050565b60006020820190508181036000830152610da98184610c6d565b905092915050565b60006080820190508181036000830152610dcb8187610c6d565b9050610dda6020830186610b92565b610de76040830185610c25565b610df46060830184610d5e565b95945050505050565b60006020820190508181036000830152610e1681610ca6565b9050919050565b60006020820190508181036000830152610e3681610cc9565b9050919050565b6000604082019050610e526000830185610d5e565b8181036020830152610e648184610c6d565b90509392505050565b6000610e77610e88565b9050610e838282611019565b919050565b6000604051905090565b600067ffffffffffffffff821115610ead57610eac611106565b5b610eb682611149565b9050602081019050919050565b6000819050602082019050919050565b600081519050919050565b600081519050919050565b6000602082019050919050565b600082825260208201905092915050565b600082825260208201905092915050565b600082825260208201905092915050565b6000610f3482610f9b565b9150610f3f83610f9b565b925082821015610f5257610f5161104a565b5b828203905092915050565b6000610f6882610f7b565b9050919050565b60008115159050919050565b600073ffffffffffffffffffffffffffffffffffffffff82169050919050565b6000819050919050565b82818337600083830152505050565b60005b83811015610fd2578082015181840152602081019050610fb7565b83811115610fe1576000848401525b50505050565b60006002820490506001821680610fff57607f821691505b6020821081141561101357611012611079565b5b50919050565b61102282611149565b810181811067ffffffffffffffff8211171561104157611040611106565b5b80604052505050565b7f4e487b7100000000000000000000000000000000000000000000000000000000600052601160045260246000fd5b7f4e487b7100000000000000000000000000000000000000000000000000000000600052602260045260246000fd5b7f4e487b7100000000000000000000000000000000000000000000000000000000600052603160045260246000fd5b7f4e487b7100000000000000000000000000000000000000000000000000000000600052603260045260246000fd5b7f4e487b7100000000000000000000000000000000000000000000000000000000600052604160045260246000fd5b600080fd5b600080fd5b600080fd5b600080fd5b6000601f19601f8301169050919050565b7f596f7520617265206e6f7420746865206f776e6572206f6620746f646f2e0000600082015250565b7f596f7520617265206e6f7420746865206f776e6572206f6620746f646f000000600082015250565b6111b581610f6f565b81146111c057600080fd5b50565b6111cc81610f9b565b81146111d757600080fd5b5056fea26469706673582212209ff6d88595f9d0929c9f26c15039036722ae7f8e667f9462ac1a401d1b0d1c8664736f6c63430008070033",
  "linkReferences": {},
  "deployedLinkReferences": {}
}